:020000040800F2
:10000000F0090020CD010008551000084D1000082F
:10001000511000086D080008931800080000000047
:100020000000000000000000000000000D130008A8
:10003000690B000800000000DD100008F91300083B
:10004000E7010008E7010008E7010008E7010008F0
:10005000E7010008E7010008E7010008E7010008E0
:100060006D0B0008B90B0008050C0008E70100083B
:10007000E7010008E7010008E7010008E7010008C0
:10008000E7010008E7010008E7010008E7010008B0
:10009000E7010008E7010008E7010008E7010008A0
:1000A000E7010008E7010008E7010008E701000890
:1000B0005D140008E7010008E7010008E7010008F7
:1000C000E7010008E7010008E7010008E701000870
:1000D000E7010008CD150008E7010008E701000866
:1000E000E7010008E7010008E7010008E701000850
:1000F000E7010008E7010008E7010008E701000840
:10010000E7010008E7010008E7010008E70100082F
:10011000E7010008E7010008E7010008E70100081F
:10012000E7010008E7010008E7010008E70100080F
:1001300000F002F800F03AF80AA090E8000C8244BF
:100140008344AAF10107DA4501D100F02FF8AFF29C
:10015000090EBAE80F0013F0010F18BFFB1A43F0A5
:1001600001031847402C0000602C0000103A24BF07
:1001700078C878C1FAD8520724BF30C830C144BF0C
:1001800004680C607047000000230024002500264E
:10019000103A28BF78C1FBD8520728BF30C148BFEA
:1001A0000B6070471FB51FBD10B510BD00F012F9F0
:1001B0001146FFF7F7FF02F015FA00F030F903B42B
:1001C000FFF7F2FF03BC00F0F7F800000948804792
:1001D00009480047FEE7FEE7FEE7FEE7FEE7FEE729
:1001E000FEE7FEE7FEE7FEE704480549054A064B41
:1001F00070470000FD13000831010008F0030020E3
:10020000F0090020F0050020F00500200EB505469D
:1002100014460E4613A000F08CF8284600F089F82A
:1002200016A000F086F8304600F083F815A000F024
:1002300080F800218DF80B100A210DF10A008DF8CD
:100240000A1008E094FBF1F201FB124294FBF1F476
:10025000303200F8012D002CF4DC00F06AF800F0D8
:100260005DF800002A2A2A20617373657274696F31
:100270006E206661696C65643A2000002C20666916
:100280006C6520002C206C696E652000032A40F20A
:10029000308010F0030C00F0158011F8013BBCF128
:1002A000020F624498BF11F801CB00F8013B38BF40
:1002B00011F8013BA2F1040298BF00F801CB38BF4E
:1002C00000F8013B11F0030300F03D80083AC0F054
:1002D000088051F8043B083A51F804CBA0E8081014
:1002E000F5E7121D5CBF51F8043B40F8043BAFF347
:1002F0000080D20724BF11F8013B11F801CB48BFA1
:1003000011F8012B24BF00F8013B00F801CB48BFD6
:1003100000F8012B704770477047704710B50020F8
:1003200000F050F8FFF740FFBDE81040012000F05A
:1003300043B810B5044602E0641C00F036F820789B
:100340000028F9D110BD10B5203AC0F00B80B1E8FB
:100350001850203AA0E81850B1E81850A0E81850FA
:10036000BFF4F5AF5FEA027C24BFB1E81850A0E803
:10037000185044BF18C918C0BDE810405FEA827C1D
:1003800024BF51F8043B40F8043B08BF7047D20734
:1003900028BF31F8023B48BF11F8012B28BF20F8D5
:1003A000023B48BF00F8012B704708B569468DF83D
:1003B00000000320ABBE08BD01491820ABBEFEE71C
:1003C0002600020010B500F039F8BDE8104000F03A
:1003D0002FB87047754600F049F8AE4605006946EB
:1003E000534620F00700854618B020B5FFF7FCFE05
:1003F000BDE820404FF000064FF000074FF0000826
:100400004FF0000B21F00701AC46ACE8C009ACE8A6
:10041000C009ACE8C009ACE8C0098D46704710B50A
:100420000446AFF300802046BDE81040FFF7C7BE8A
:10043000002801D0FFF7C0BF7047000010B50021B1
:1004400002A000F017F8012010BD000053494741F9
:100450004252543A2041626E6F726D616C20746535
:10046000726D696E6174696F6E00000000487047BC
:100470009003002070B505460C460A2000E06D1C74
:10048000FFF793FF35B128780028F8D102E0641C0B
:10049000FFF78BFF14B120780028F8D1BDE8704039
:1004A0000A20FFF782BF21B1826842F00102826018
:1004B00003E0826822F0010282607047002005E0BC
:1004C0000021044A22F81010411CC8B29628F7DB1C
:1004D000704700002801002021B1826842F4807238
:1004E000826003E0826822F48072826070470000BC
:1004F00000B58BB0FFF7E2FF0121084600F0FCFDDC
:10050000114800F06DFA1148009011480190002048
:10051000029096200390002004904FF48070069083
:1005200080200590C00007902020089000020990CC
:1005300000200A906946044800F0F8FA01210248B8
:1005400000F041FA0BB000BD080002404C2401400D
:1005500028010020014600208A6802F004020AB146
:10056000012000E000207047014600208A6802F068
:1005700008020AB1012000E00020704730B50246B1
:100580000020002350680F4C20400D790C6844EA8D
:1005900005242043506090680B4C2040D1E9025460
:1005A0002C434D7944EA450420439060D06A20F4FE
:1005B00070000C7C641EE4B2234340EA0350D06216
:1005C00030BD0000FFFEF0FFFDF7F1FF00B585B084
:1005D0000121480200F0B0FD0020009001208DF8BC
:1005E00004000020039001208DF805004FF46020E6
:1005F000029003208DF8100069461C48FFF7BEFFEB
:100600004FF4404000F06CFD012302220B211748FB
:1006100000F02EF8012303220C21144800F028F8E2
:1006200001231A460721114800F022F801210F4842
:10063000FFF752FF01210D48FFF735FF0B4800F08F
:1006400073F800BF0948FFF78FFF0028FAD1074869
:1006500000F07AF800BF0548FFF77CFF0028FAD1C8
:100660000121024800F065F805B000BD00240140FA
:10067000F0B504460D4600200021092D11DDE0688B
:10068000A5F10A0606EB4607072606FA07F1884396
:10069000A5F10A0606EB460603FA06F10843E060F8
:1006A0000CE0206905EB4507072606FA07F18843A9
:1006B00005EB450603FA06F108432061072A0FDA25
:1006C000606B561E06EB86071F2606FA07F1884365
:1006D000561E06EB860605FA06F10843606322E023
:1006E0000D2A0FDA206BD61F06EB86071F2606FAA7
:1006F00007F18843D61F06EB860605FA06F1084384
:10070000206310E0E06AA2F10D0606EB86071F26C3
:1007100006FA07F18843A2F10D0606EB860605FAF4
:1007200006F10843E062F0BD816841F00801816094
:10073000704721B1826842F4A002826003E08268BF
:1007400022F4A00282607047816841F00401816058
:1007500070470000002021E000EB4001214A32F800
:100760001110214A126811441F4A116000EB400128
:10077000491C1C4A32F811101C4A126811441B4AC9
:10078000116000EB4001891C164A32F81110184A1A
:1007900012681144164A1160411CC8B23228DBDBD2
:1007A000134800683221B0FBF1F0124908800E486E
:1007B00000683221B0FBF1F040F6FF71081A1438DE
:1007C0000D490880094800683221B0FBF1F00B495F
:1007D0000880002006490860034908600349086052
:1007E0007047000028010020440000204C00002039
:1007F000480000205200002050000020540000203B
:1008000008B50121182000F097FC0220ADF8000087
:1008100000208DF803006946084800F07FFB0420A3
:10082000ADF800006946054800F078FB8020ADF87F
:1008300000006946024800F071FB08BD001001404D
:100840000008014010B5FFF7DBFFFFF7BFFE10BD4A
:1008500070B504460D46164600F024FF3246294680
:10086000204600F0F7FE00F0F7FF70BD00BFFEE786
:1008700010B510480088B0F5426F07DA40F69B4289
:100880000C480188002000F06FF811E0094800884A
:10089000052806DC40F69B420021084600F064F87B
:1008A00006E040F69B4240F61F41002000F05CF855
:1008B00010BD00003000002010B510480088B0F5D1
:1008C000426F07DA0D48028840F69B41002000F095
:1008D0004BF811E009480088052806DC002240F6A4
:1008E0009B41104600F040F806E040F61F4240F6FB
:1008F0009B41002000F038F810BD000030000020BF
:1009000039B1084A1268012383401A43054B1A6023
:1009100006E0044A1268012383409A43014B1A609F
:10092000704700000074004030B5002200230A4CDC
:10093000226840F6FE748440A243D1E900452C436E
:100940008D682C43CD6844EA050303FA00F4224382
:10095000014C226030BD00000074004010B501F071
:100960004DF800F013F810BD30B50024002308281E
:1009700002D142EA012401E042EA0144024B00F1C3
:1009800020052B441C6030BD007400400EB50121D1
:10099000084600F0C1FB1320ADF804000020ADF8BC
:1009A0000000ADF80600ADF8020069464FF0804047
:1009B00000F0BAFD2021480600F0AAFD01218807B9
:1009C00000F080FD0EBD21B1026842F0010202601C
:1009D00004E002684FF6FE731A40026070470000A0
:1009E00001684FF6FE721140016000210160416014
:1009F0008160C1604B49884208D14A490839496839
:100A000041F00F01474A083A51608AE045491431E4
:100A1000884208D143490839496841F0F001414A08
:100A2000083A51607DE03F492831884208D13D496C
:100A30000839496841F470613A4A083A516070E0F7
:100A400038493C31884208D136490839496841F46F
:100A50007041344A083A516063E03249503188426B
:100A600008D130490839496841F470212D4A083AC3
:100A7000516056E02B496431884208D12949083930
:100A8000496841F47001274A083A516049E0254914
:100A90007831884208D123490839496841F07061AA
:100AA000204A083A51603CE01F49884206D1011FA4
:100AB000096841F00F01021F116032E01A49143138
:100AC000884208D11849091F096841F0F001164A07
:100AD000121F116025E014492831884208D11249BB
:100AE000091F096841F470610F4A121F116018E074
:100AF0000D493C31884208D10B49091F096841F46E
:100B00007041094A121F11600BE0074950318842B9
:100B100007D10549091F096841F47021024A121FD3
:100B200011607047080002400804024010B500221E
:100B3000026847F6F0739A430C6A8B6823430C698A
:100B400023434C6923438C692343CC6923434C6A78
:100B500023438C6A23431A430260CB6843600B68CB
:100B600083604B68C36010BD7047000010B504205F
:100B700000F074F8D0B104210D4800F05AFA0128B1
:100B800006D10C48008840F001000A49088005E0C1
:100B90000848008820F0010006490880002211461C
:100BA0001046FFF7E1FE042000F052F810BD0000EF
:100BB000000C01402400002010B5082000F04EF881
:100BC00090B108210D4800F034FA012806D10C48F4
:100BD000008820F001000A49088005E008480088E4
:100BE00040F0010006490880002211461046FFF738
:100BF000BBFE082000F02CF810BD000000080140EA
:100C00002C00002010B5102000F028F890B1102121
:100C10000D4800F00EFA012806D10C48008840F07B
:100C200002000A49088005E00848008820F0020018
:100C300006490880002211461046FFF795FE102055
:100C400000F006F810BD0000001001402C0000204C
:100C5000014908607047000014040140014600206B
:100C60000022074B1B6803EA0102054B14331B6883
:100C70000B4013B10AB1012000E0002070470000D2
:100C800000040140002123498279002A3AD00A4613
:100C9000126803689A430B461A600A1D12680368BB
:100CA0009A430B1D1A60027911440A6803681A43BB
:100CB0000A60184A0832126803689A43154B0833D1
:100CC0001A601A1D126803689A43124B0C331A609B
:100CD0004279102A0ED11A1F126803681A430D4B6D
:100CE00008331A601A1D126803681A43094B0C3343
:100CF0001A600DE00749427911440A6803681A43F3
:100D00000A6005E0027911440A6803689A430A60A0
:100D100070470000000401400EB501211D2000F0C5
:100D20000BFA01F00FFC0120ADF8080004208DF84B
:100D30000B0002A9424800F0F1F80021084600F03B
:100D4000CDF80120009000208DF8040010208DF8CF
:100D5000050001208DF806006846FFF793FF02208A
:100D6000ADF8080004208DF80B0002A9344800F00B
:100D7000D5F80121002000F0B1F8022000900020F9
:100D80008DF8040010208DF8050001208DF8060074
:100D90006846FFF777FF0820ADF8080004208DF8BB
:100DA0000B0002A9264800F0B9F80321002000F04A
:100DB00095F80820009000208DF8040010208DF890
:100DC000050001208DF806006846FFF75BFF102044
:100DD000ADF8080004208DF80B0002A9194800F0B6
:100DE0009DF80421022000F079F8102000900020E6
:100DF0008DF8040010208DF8050001208DF8060004
:100E00006846FFF73FFF0420ADF808008DF80B009F
:100E100002A90D4800F082F80221012000F05EF8DE
:100E20000420009000208DF8040010208DF80500AB
:100E300001208DF806006846FFF724FF0EBD000074
:100E40000008014000100140000C014010B50821CD
:100E50001D4800F0EEF8012806D11C48008820F05B
:100E600001001A49088005E01848008840F0010098
:100E7000164908801021164800F0DBF80121B1EB7B
:100E8000400F06D11148008840F002000F49088049
:100E900005E00E48008820F002000C49088004217B
:100EA0000C4800F0C6F8012806D10B48008840F035
:100EB00001000949088005E00748008820F001008A
:100EC0000549088010BD0000000801402C000020EA
:100ED00000100140000C01402400002030B5002229
:100EE0008B071C0F0F2303FA04F20B4B8C1053F8E3
:100EF00024309343084C8D1044F8253023468C1041
:100F000053F824308C07240F00FA04F42343024CD6
:100F10008D1044F8253030BD080001402DE9F04126
:100F2000024600250026002000230024002791F817
:100F300003C00CF00F0591F803C00CF0100CBCF1CD
:100F4000000F03D091F802C04CEA050591F800C0EB
:100F5000BCF1000F31D0146800202BE04FF0010CE1
:100F60000CFA00F3B1F800C00CEA03069E4220D14F
:100F700083004FF00F0C0CFA03F7BC4305FA03FC97
:100F80004CEA040491F803C0BCF1280F06D14FF0DD
:100F9000010C0CFA00FCC2F814C00AE091F803C07E
:100FA000BCF1480F05D14FF0010C0CFA00FCC2F85F
:100FB00010C0401C0828D1D31460B1F800C0BCF1A7
:100FC000FF0F34DD546800202EE000F1080C4FF0D4
:100FD000010808FA0CF3B1F800C00CEA03069E42BF
:100FE00021D183004FF00F0C0CFA03F7BC4305FA34
:100FF00003FC4CEA040491F803C0BCF1280F05D1AE
:1010000000F1080C08FA0CF8C2F8148091F803C03B
:10101000BCF1480F07D100F1080C4FF0010808FAA5
:101020000CF8C2F81080401C0828CED35460BDE8EC
:10103000F0810246002093680B400BB1012000E0D4
:1010400000207047416170470161704700BFFEE7B3
:1010500000BFFEE77047000070B5002100230F229B
:10106000C47804B3154C246804F4E064C4F5E06467
:10107000210AC1F10403CA40447804FA03F18478D8
:101080001440214309010E4C0678A155047804F060
:101090001F050124AC4005786D11AD0005F1E02578
:1010A000C5F8004109E0047804F01F050124AC40B4
:1010B000044D0678761145F8264070BD0CED00E031
:1010C00000E400E080E100E002490143024A1160CF
:1010D000704700000000FA050CED00E070470000CA
:1010E00001460020034A506820F440400843506005
:1010F000704700000010024029B1064A52690243BD
:10110000044B5A6104E0034A52698243014B5A611D
:10111000704700000010024029B1064AD26902431C
:10112000044BDA6104E0034AD2698243014BDA617D
:10113000704700000010024029B1064A926902433C
:10114000044B9A6104E0034A92698243014B9A611D
:10115000704700000010024010B500F04FF9012167
:101160000420FFF7E9FF01210820FFF7E5FF012137
:101170001020FFF7E1FF01210846FFF7CDFF012115
:101180000220FFF7C9FF01218803FFF7D5FF0121E6
:101190004804FFF7C1FF01218804FFF7BDFF0121CB
:1011A0000846FFF7C9FF10BD30B50021002200241A
:1011B00000232D4D6D6805F00C0121B1042905D0E7
:1011C000082923D105E0294D056022E0274D05605F
:1011D0001FE0254D6D6805F47012234D6D6805F410
:1011E0008034022505EB92421CB9214D5543056020
:1011F0000BE01D4D6D6805F400351DB11C4D5543C8
:10120000056002E0194D5543056002E0174D056089
:1012100000BF00BF144D6D6805F0F0010909154DC0
:101220006B5C0568DD4045600F4D6D6805F4E0615D
:10123000090A104D6B5C4568DD4085600A4D6D689C
:1012400005F46051C90A0B4D6B5C4568DD40C56013
:10125000054D6D6805F44041890B074D6B5CC56811
:10126000B5FBF3F5056130BD0010024000127A00B5
:1012700000093D00000000201000002010B51048BB
:101280000088B0F5426F07DA40F69B420C480188AF
:101290000020FFF769FB11E009480088052806DCFB
:1012A00040F69B4200210846FFF75EFB06E040F651
:1012B0009B4240F61F410020FFF756FB10BD000087
:1012C0003200002010B510480088B0F5426F07DAF0
:1012D0000D48028840F69B410020FFF745FB11E0D6
:1012E00009480088052806DC002240F69B4110468C
:1012F000FFF73AFB06E040F61F4240F69B41002014
:10130000FFF732FB10BD000032000020704710B51F
:1013100000F002F810BD00000CB500200190009014
:101320003348006840F480303149086000BF3048DD
:10133000006800F4003000900198401C0190009873
:1013400018B90198B0F5A06FF1D12948006800F4F0
:10135000003010B10120009001E0002000900098C2
:10136000012843D12348006840F01000214908605B
:101370000846006820F0030008600846006840F056
:10138000020008601A4840681949486008464068E9
:1013900048600846406840F48060486008464068FD
:1013A00020F47C1048600846406840F4E81048602B
:1013B0000846006840F08070086000BF0C48006874
:1013C00000F000700028F9D00948406820F00300C0
:1013D000074948600846406840F00200486000BF86
:1013E0000348406800F00C000828F9D10CBD00004B
:1013F00000100240002002407047000010B5134862
:10140000006840F001001149086008464068104932
:1014100008400E494860084600680E4908400B49DC
:1014200008600846006820F480200860084640688C
:1014300020F4FE0048604FF41F008860FFF767FF4C
:101440004FF000600449086010BD00000010024029
:101450000000FFF8FFFFF6FE08ED00E010B50121E7
:10146000880700F03BF828B101F006F90121880750
:1014700000F025F810BD7FB505460C46ADF80450C8
:10148000ADF800400020ADF80200ADF80600694656
:101490004FF0804000F048F84FF4C060FFF714FEB2
:1014A0001C208DF80C0000208DF80D0001208DF817
:1014B0000E008DF80F0003A8FFF7CEFD7FBDCA43D5
:1014C0000282704721B1028842F00102028004E0EA
:1014D00002884FF6FE731A400280704730B502460C
:1014E000002000230024158A05EA0103958905EAF6
:1014F000010413B10CB1012000E0002030BD1AB18D
:1015000083890B43838102E083898B438381704706
:1015100082884FF68F731A40828082880A438280C5
:101520007047818470470000002202881D4B98425A
:101530000ED01D4B98420BD0B0F1804F08D01B4B02
:10154000984205D01A4B984202D01A4B984204D1C7
:101550004FF68F731A404B881A43174B984207D0A7
:10156000164B984204D04FF6FF431A40CB881A43DB
:1015700002808B8883850B8803850A4B98420BD0A9
:10158000094B984208D00E4B984205D00D4B98421B
:1015900002D00D4B984201D10B7A0386012383823E
:1015A00070470000002C014000340140000400405E
:1015B00000080040000C00400010004000140040F3
:1015C00000400140004401400048014010B540F295
:1015D00025510D4800F084F830B101F055F840F283
:1015E0002551094800F01BF840F22771064800F029
:1015F00077F8012806D101F04FF840F22771024830
:1016000000F00DF810BD00000038014001F4007238
:10161000B2F5007F00D100BFCA430280704710B509
:101620000022002340F66A14A14200D100BF0A1232
:1016300001249440A3B2DC43048010BD21B182890F
:1016400042F40052828104E082894DF6FF731A4011
:10165000828170477FB504460D4616464FF41650FA
:1016600000900020ADF80400ADF80600ADF80800C9
:10167000ADF80C000C20ADF80A006946084800F0EF
:101680007FF8012240F22551054800F053F801216E
:101690000348FFF7D3FF40210148FFF7B7FF7FBDA5
:1016A0000038014008B54FF40070ADF80000032089
:1016B0008DF8020018208DF8030069460748FFF7EF
:1016C0002DFC4FF48060ADF8000004208DF803007D
:1016D00069460248FFF722FC08BD000000080140EF
:1016E00070B50246002400230025002040F66A164B
:1016F000B14200D100BFC1F3421501F01F03012622
:1017000006FA03F3012D02D19689334006E0022D3B
:1017100002D1168A334001E0968A33400C1201262A
:1017200006FA04F41688344013B10CB1012000E02D
:10173000002070BDF0B503460024002600250020DF
:1017400040F66A17B94200D100BF1846C1F34214EF
:1017500001F01F06012707FA06F5012C01D10C3014
:1017600004E0022C01D1103000E014301AB10768F7
:101770002F43076002E00768AF430760F0BD000039
:101780002DE9F04786B005460E460024A24600BF6C
:10179000A1460027B08900B100BF2F462C8A4CF625
:1017A000FF700440F08804432C82AC894EF6F3109D
:1017B0000440B08831890843718908430443AC81EF
:1017C000AC8A4FF6FF400440B0890443AC8201A8C4
:1017D000FFF7EAFC1F48874202D1DDF810A001E0C4
:1017E000DDF80CA0A88900F4004040B10AEBCA0063
:1017F00000EB0A1031684900B0FBF1F807E00AEB92
:10180000CA0000EB0A1031688900B0FBF1F86420CF
:10181000B8FBF0F004012009642101FB1089A889BC
:1018200000F4004040B1322000EBC900B0FBF1F001
:1018300000F00700044308E0322000EB09106421A7
:10184000B0FBF1F000F00F0004432C8106B0BDE8BE
:10185000F08700000038014008B54FF4C060FFF782
:1018600033FC25208DF8000000208DF801008DF854
:10187000020001208DF803006846FFF7EDFB08BD6C
:1018800001468888C0F308007047C1F308028280CF
:10189000704700BFFEE7000010B5044649480480C9
:1018A000012C4BD14848006840F0080046490860C8
:1018B0000846006840F0100008604448006840F0A6
:1018C000010042490860FEF745FF4148008840F6A4
:1018D0001F41484340F6A16190FBF1F03D4908806B
:1018E0003D48008800F0010020B908213B48FFF77F
:1018F000A9FB03E008213948FFF7A6FB364800881A
:1019000000F0020010B1FEF7B3FF01E0FEF7D4FFD4
:1019100031480088324908802E4800884880314884
:101920000088888030480088C88030480088088156
:10193000084644814EF6EE60888141E02248006806
:1019400020F00800204908600846006820F01000D8
:101950000860FEF7FFFE26480088264908802448D4
:101960004088254908802348007800F0010020B114
:1019700008211A48FFF768FB03E008211748FFF722
:1019800061FB1C48007800F0020010B1FFF776FC04
:1019900001E0FFF797FC17480088114908801648B6
:1019A000008848800F48008888800F480088C880D9
:1019B0000E48008808810846448141F21110888150
:1019C00010BD000014000020000401400824014064
:1019D00050000020300000202C00002000100140AA
:1019E0005402002052000020540000201E0000205D
:1019F000620200202E0000203200002000B585B0D9
:101A000001210420FFF798FB01214807FFF784FB21
:101A10001020ADF8000000208DF8030003208DF8A1
:101A2000020069461448FFF779FA2020ADF800005B
:101A300000208DF8030003208DF8020069460E484F
:101A4000FFF76CFA002001900290049001A9FEF7C4
:101A50006BFF01A91020FEF767FF01210020FEF7B0
:101A60004FFF01211020FEF74BFF002211461046C8
:101A7000FEF77AFF05B000BD0008014010B5002454
:101A800006480078012806D10548006880470020F4
:101A90000249087000E00624204610BD62000020C4
:101AA000680000202DE9F05F06460D464FF0000B60
:101AB0002888052848D170784FEA0029B07840EA94
:101AC000090909F101001FFA80F9F0780402307960
:101AD0000443012C35DBB4F5FA6F32DA37460020C7
:101AE0002880012007F8010B2888401C288004F07A
:101AF000070040B12046E11704EB5171C910491CA1
:101B000001F0FF0805E02046E11704EB5171C1F335
:101B1000C70807F8018B2888401C2880002322462C
:101B20004946384600F02AFC8246BAF1000F04D03C
:101B3000504600F08FFD834608E028884044288006
:101B400004E04FF0030B01E04FF0030B5846BDE8F3
:101B5000F09F2DE9F05F06460D464FF0000B2888F8
:101B6000052847D170784FEA0029B07840EA090982
:101B700009F101001FFA80F9F0780402307904437A
:101B8000012C34DBB4F5FA6F31DA374600202880B7
:101B9000022007F8010B2888401C288004F0070069
:101BA00040B12046E11704EB5171C910491C01F006
:101BB000FF0805E02046E11704EB5171C1F3C708A7
:101BC00007F8018B2888401C288022464946384661
:101BD00000F020FC8246BAF1000F04D0504600F01D
:101BE00039FD834608E028884044288004E04FF00F
:101BF000030B01E04FF0030B5846BDE8F09F2DE9C1
:101C0000F04705460C464FF0000A2088052837D1DA
:101C100068784FEA0028A87840EA080808F101002F
:101C20001FFA80F8E87806022E79012E25DB7D2E3A
:101C300023DC2F4600202080032007F8010B20889A
:101C4000401C20807006000E07F8010B2088401C05
:101C50002080002332464146384600F00DFC814684
:101C6000B9F1000F04D0484600F0F4FC824609E0C8
:101C7000208800EB4600208004E04FF0030A01E0DA
:101C80004FF0030A5046BDE8F0872DE9F0470546BE
:101C90000C464FF0000A2088052837D168784FEAB3
:101CA0000028A87840EA080808F101001FFA80F827
:101CB000E878060228790643012E24DB7D2E22DAFD
:101CC0002F4600202080042007F8010B2088401CAC
:101CD00020807006000E07F8010B2088401C208031
:101CE00032464146384600F007FC8146B9F1000F04
:101CF00004D0484600F0AEFC824609E0208800EBA4
:101D00004600208004E04FF0030A01E04FF0030A90
:101D10005046BDE8F0872DE9FC5F04460D460020E3
:101D2000009028880A285DDB60784FEA002AA078B6
:101D300040EA0A0A0AF101001FFA80FAE078060276
:101D40002079064360794FEA002BA07940EA0B0B1B
:101D50000BF101001FFA80FBE0790702207A0743AC
:101D6000607A0190012E3BDB7D2E39DC012F37DBC1
:101D7000792F35DC79000198814231D101233A462F
:101D8000594604F10A0000F077FB8146B9F1000FD3
:101D90001ED1A04600202880172008F8010B2888B3
:101DA000401C28807006000E08F8010B2888401C93
:101DB0002880002332465146404600F05DFB8146B4
:101DC000B9F1000F04D12888022101FB0600288008
:101DD000B9F1000F06D0484600F03CFC009001E04D
:101DE000032000900098BDE8FC9F000070B50546F8
:101DF0000C46064802880649681CFEF747FA034865
:101E00000088401C2080002070BD000024010020BC
:101E1000700300202DE9F84304460F464FF00008F8
:101E20003888052829D160780502A0780543681C08
:101E300085B22079F0B9E078FF2801D0E078C8B900
:101E400000208DF80100E078FF2803D101208DF8F3
:101E5000000002E000208DF8000001231A46294608
:101E6000684600F08BFA06464EB1304600F0F2FBB1
:101E7000804604E04FF0030801E04FF003084046BD
:101E8000BDE8F8832DE9F04104460F464FF0000805
:101E90003888052812D160780502A0780543681CAF
:101EA00085B201231A462946E01C00F0E5FA0646F1
:101EB00036B1304600F0CEFB804601E04FF003081B
:101EC0004046BDE8F0812DE9F05F05460E464FF033
:101ED000000B3088052839DD68780702A8780743A9
:101EE000781C87B2E87804022879044395F805A0A5
:101EF00004F0070040B12046E11704EB5171C9100E
:101F0000491C01F0FF0805E02046E11704EB517180
:101F1000C1F3C708012C16DBB4F5F66F13DCD0450E
:101F200011D1012322463946A81D00F027FA814627
:101F3000B9F1000F04D0484600F08CFB834607E05F
:101F40000520308004E04FF0030B01E04FF0030B5D
:101F50005846BDE8F09F2DE9F04704460E464FF085
:101F6000000A3088062828DB60780702A07807433B
:101F7000781C87B2E07805022079054394F8059033
:101F8000012D17DB782D15DC6806000E484511D1B0
:101F900001232A463946A01D00F06EFA8046B8F1AA
:101FA000000F04D0404600F055FB824607E00520B4
:101FB000308004E04FF0030A01E04FF0030A50467E
:101FC000BDE8F0872DE9F04705460C4616461F464A
:101FD000DDF820904FF000081CB1012C01DBF72C3C
:101FE00002DD4FF0020836E01C48047005BB1C48B7
:101FF0001C4908601C481D4908601D481D490860AF
:102000001D481E49086000201D4908601D481E49E2
:1020100008601E481E4908601E481F4908604B465C
:102020003A4631460D48007800F0D2F8804602E08A
:102030004FF0020800BF00BFB8F1000F0BD100F055
:10204000C5FB10B94FF0030805E0144805700120E6
:102050001349087000BF4046BDE8F08760000020CB
:1020600051230008680000206D2300086C00002048
:10207000C92200086400002021220008700000200E
:10208000740000206128000878000020BD290008A5
:102090007C00002039290008800000206100002019
:1020A0006200002038B500253F48007808B10620BE
:1020B00038BD684600F078FB012872D19DF8000019
:1020C00030B1012805D0022818D0032868D166E075
:1020D00066E0364A36493748374B1B68984705460D
:1020E0005DB93448007835490978884202D03148D2
:1020F000007810B9022000F071FB51E02C48006814
:1021000000782F49087001202E490870002417E03C
:102110002D4810F8340000B914E02B4810F83400B2
:102120002749097888420AD1274800EBC4001F4993
:1021300042681F48006890472249087002E0641C0A
:10214000102CE5DB00BF1B48007830B31D48007839
:10215000C8B10020154908801948007840F0800176
:10216000124802880088401C104B188010480068F4
:10217000815414480178184602880088401C188051
:102180000B480068815409480288094801680B48D7
:1021900000780E4B1B689847054601E001E000BF40
:1021A00000BF002084E70000620000201201002030
:1021B0000C010020100100207000002060000020B1
:1021C00011010020140100208C0000206400002078
:1021D0002DE9F04781460E4614461F464FF0000891
:1021E0003B4608222146304600F00EFB012802D073
:1021F0004FF003080FE0B4F5964F01D9232503E013
:1022000060000649B1FBF0F5A8B200F015FB01280B
:1022100001D04FF003084046BDE8F087A07F1700CB
:102220002DE9F04104460D4616464FF00008002700
:1022300012480088FF2800DC04E0B02210A117A09B
:10224000FDF7E4FF0D480088042812DB0B480188E5
:102250001C4800F03FFA60B91A480078207007481F
:102260000088C01E30801748401C28604FF00108CD
:1022700000E005273846BDE8F0810000220100207B
:102280002E2E5C557365725C4D6F644275735C7283
:1022900074755C6D627274752E63000075735263A1
:1022A00076427566666572506F73203C204D425FC2
:1022B0005345525F5044555F53495A455F4D41580D
:1022C00000000000700200202DE9F04105460E4696
:1022D00017464FF0000819480078012829D1701ED0
:1022E00017490860012017490880154800680570E3
:1022F000084600883844088008460188104800686D
:1023000000F0E8F904460F490888411C0D4B19807C
:102310000D490C54221219460888411C19800A499B
:102320000A540120094908700121002000F0EEF94B
:1023300001E04FF005084046BDE8F081190100209A
:102340001C01002020010020700200201801002044
:1023500010B50020044908700021012000F0D6F9D2
:1023600000F00DFA10BD00001901002010B5002189
:10237000084600F0CBF900F0EDF910BD2DE9F0476B
:1023800005460E46904699464FF0000A4446B6F57B
:102390007A7F37DB06EB0800B0F57E7F32DCA6F5EE
:1023A0007A7087B2B9F1000F03D0B9F1010F28D1CB
:1023B00013E00FE0082C01DD082000E02046C2B247
:1023C0003946134800F058FB05F8010B083C07F1AB
:1023D000080087B2002CEDDC13E00FE015F8013B9C
:1023E000082C01DD082000E02046C2B2394608482A
:1023F00000F058FB083C07F1080087B2002CEDDC28
:1024000000BF01E04FF0010A5046BDE8F087000030
:102410005A0000202DE9F04705460C4616464FF0BD
:10242000000937B2B4F57A7F1EDBA019B0F57E7FC4
:102430001ADCA4F57A701FFA80F812E0082F01DD8B
:10244000082000E03846C2B241460A4800F014FBBA
:1024500005F8010BA7F1080007B208F108001FFA00
:1024600080F8002FEADC01E04FF001094846BDE8A2
:10247000F08700005C000020F0B504460D46002007
:10248000B5F57A7F31DBAE18B6F57C7F2DDA184EC4
:102490003688A91B13B1012B26D111E00DE0154E92
:1024A00036F81160361204F8016B124E16F81160FE
:1024B00004F8016B491C561EB2B2002AEFDC13E08F
:1024C00010E014F8017B3E020A4F27F8116014F85F
:1024D000016B37F811703E43064F27F81160491C15
:1024E000561EB2B2002AECDC00E00120F0BD000074
:1024F000580000206202002030B503460020B1F5EC
:102500007A7F18DB8D18B5F57C7F14DA0B4D2D889A
:102510004C1B0DE00A4D35F814502D1203F8015BE9
:10252000074D15F8145003F8015B641C551EAAB240
:10253000002AEFDC00E0012030BD00005600002042
:102540005402002008B54FF4C060FEF7BDFD062020
:102550008DF8000000208DF801008DF802000120A8
:102560008DF803006846FEF777FD07208DF8000020
:1025700000208DF8010004208DF8020001208DF864
:1025800003006846FEF768FD09208DF80000002072
:102590008DF8010001208DF802008DF803006846D7
:1025A000FEF75AFD0A208DF8000000208DF801008A
:1025B00002208DF8020001208DF803006846FEF726
:1025C0004BFD08208DF8000000208DF8010003204D
:1025D0008DF8020001208DF803006846FEF73CFDEF
:1025E00008BD000008B5FEF7B7FD00F05DF8FEF786
:1025F00093FBFDF77DFFFEF725F9FEF7AFF900200D
:102600004FF41653024601210090FFF7DBFCFFF761
:1026100035FAFEF71BFC11E0FFF744FD084800788F
:10262000FFF73AF908210748FEF703FD064908704D
:1026300010210648FEF7FDFC05490870ECE7000094
:10264000240000200008014020000020001001406C
:1026500021000020014621B1012904D0072906D11B
:1026600003E0002005E0022003E0062001E0042052
:1026700000BF00BF7047000010B5024800688047E7
:1026800010BD00008000002010B50248006880479F
:1026900010BD00007800002010B502480068804797
:1026A00010BD00007C00002008B501213420FEF799
:1026B00043FD0120ADF8000010208DF8030001203B
:1026C0008DF8020069460248FEF728FC08BD0000AC
:1026D0000010014070B502460C46FF25FF2309E0BB
:1026E00012F8010B80EA03010648405C80EA05030A
:1026F0000548455C201EA4F10106B4B2F0D143EABE
:10270000052070BD402B0008402C000870B5054620
:102710000C46012D06D1012240F225510C48FFF74D
:1027200009F805E0002240F225510948FFF702F8B8
:10273000012C06D1012240F227710548FEF7FAFF6D
:1027400005E0002240F227710148FEF7F3FF70BD5B
:102750000038014010B500214FF08040FEF7B2FE76
:1027600000214FF08040FEF7DCFE002201218807A7
:10277000FEF7C5FE01218807FEF7A1FE10BD10B5CA
:1027800001218807FEF79BFE012211469007FEF704
:10279000B6FE00214FF08040FEF7C3FE01218807FE
:1027A000FEF790FE10BD000001460020054A127899
:1027B00032B1054A12780A700022024B1A700120C9
:1027C0007047000027010020260100200020024958
:1027D00008700120704700002701002001460120F9
:1027E000024A107002480170012070472701002042
:1027F0002601002010B504460248FFF741F820707A
:10280000012010BD003801402DE9F04105460C467D
:1028100016461F46002211462046FEF719F80120F1
:10282000BDE8F08110B5044621460248FFF72DF8B7
:10283000012010BD0038014010B5044640F60F617C
:102840002046FEF718FE002201218807FEF757FEFA
:1028500000214FF08040FEF735FE012010BD000042
:1028600038B500242248007800B905E04FF48072A2
:1028700020A127A0FDF7CAFC6846FFF7BBFF2B4845
:10288000007830B101280AD0022819D003282BD1B2
:1028900002E0FFF774FF27E0FFF771FF24E000205C
:1028A000234908809DF800200888411C204B19808E
:1028B00020490A5402201D490870FFF760FF13E009
:1028C0001B480088FF2809DC9DF80020184908886B
:1028D000411C174B198017490A5402E00320134981
:1028E0000870FFF74CFF00BF00BF204638BD000056
:1028F000180100202E2E5C557365725C4D6F64428A
:1029000075735C7274755C6D627274752E63000011
:1029100065536E645374617465203D3D205354418A
:1029200054455F54585F49444C450000190100204C
:10293000220100207002002010B500241648007803
:1029400020B1022807D003280BD109E00020FFF7AF
:1029500045FF044618E00120FFF740FF044613E05E
:1029600012E00D48007838B10B480078022803D0F7
:1029700009480078032800D105E04FF4BF7207A191
:102980000D48FDF743FC00BF00BFFFF7E3FE012049
:1029900001490870204610BD190100202E2E5C55FB
:1029A0007365725C4D6F644275735C7274755C6DB7
:1029B000627274752E630000402D000810B500246B
:1029C0001B480078012800D105E040F23F1219A110
:1029D0001FA0FDF71BFC2548007810B1012824D169
:1029E00004E000210120FFF791FE1EE0204800884E
:1029F00078B1204909680878FFF714FF1D4800687E
:102A0000401C1C4908601A480088401E184908806C
:102A10000AE00320FFF7E2FE044600210120FFF751
:102A200075FE00201149087000BF00BF204610BD90
:102A3000190100202E2E5C557365725C4D6F644247
:102A400075735C7274755C6D627274752E630000D0
:102A5000655263765374617465203D3D2053544143
:102A600054455F52585F49444C450000180100200E
:102A7000200100201C010020F0B503460C4615463D
:102A8000E208A4EBC20087B20120A840401E86B233
:102A9000995C501C185C41EA002139413140C8B2B0
:102AA000F0BD00002DE9FF5F05460E469046DDF8BB
:102AB0000CB0B8F1080F00DC04E0382213A11CA010
:102AC000FDF7A4FBF408A6EBC4001FFA80FA0BFA8A
:102AD0000AF01FFA80FB012000FA08F0401E1FFADE
:102AE00080F9A6EBC40009FA00F01FFA80F92F5D07
:102AF000601C285C47EA002727EA090040EA0B0728
:102B00002F553912601C2954BDE8FF9F2E2E5C55AD
:102B10007365725C4D6F644275735C66756E637449
:102B2000696F6E735C6D627574696C732E630000FF
:102B300075634E42697473203C3D203800000000EC
:102B400000C1814001C0804101C0804100C181407D
:102B500001C0804100C1814000C1814001C080416D
:102B600001C0804100C1814000C1814001C080415D
:102B700000C1814001C0804101C0804100C181404D
:102B800001C0804100C1814000C1814001C080413D
:102B900000C1814001C0804101C0804100C181402D
:102BA00000C1814001C0804101C0804100C181401D
:102BB00001C0804100C1814000C1814001C080410D
:102BC00001C0804100C1814000C1814001C08041FD
:102BD00000C1814001C0804101C0804100C18140ED
:102BE00000C1814001C0804101C0804100C18140DD
:102BF00001C0804100C1814000C1814001C08041CD
:102C000000C1814001C0804101C0804100C18140BC
:102C100001C0804100C1814000C1814001C08041AC
:102C200001C0804100C1814000C1814001C080419C
:102C300000C1814001C0804101C0804100C181408C
:102C400000C0C101C30302C2C60607C705C5C4044C
:102C5000CC0C0DCD0FCFCE0E0ACACB0BC90908C8BC
:102C6000D81819D91BDBDA1A1EDEDF1FDD1D1CDCAC
:102C700014D4D515D71716D6D21213D311D1D0101C
:102C8000F03031F133F3F23236F6F737F53534F40C
:102C90003CFCFD3DFF3F3EFEFA3A3BFB39F9F8387C
:102CA00028E8E929EB2B2AEAEE2E2FEF2DEDEC2C6C
:102CB000E42425E527E7E62622E2E323E12120E0DC
:102CC000A06061A163A3A26266A6A767A56564A4CC
:102CD0006CACAD6DAF6F6EAEAA6A6BAB69A9A8683C
:102CE00078B8B979BB7B7ABABE7E7FBF7DBDBC7C2C
:102CF000B47475B577B7B67672B2B373B17170B09C
:102D0000509091519353529296565797559594548B
:102D10009C5C5D9D5F9F9E5E5A9A9B5B99595898FB
:102D2000884849894B8B8A4A4E8E8F4F8D4D4C8CEB
:102D3000448485458747468682424383418180405B
:102D40002820655263765374617465203D3D20539D
:102D5000544154455F52585F494E49542029207CC4
:102D60007C202820655263765374617465203D3D54
:102D70002053544154455F52585F524356202920F6
:102D80007C7C202820655263765374617465203DF5
:102D90003D2053544154455F52585F4552524F5263
:102DA00020290000C42D0008000000202801000098
:102DB0006C010008EC2E000828010020C808000063
:102DC000880100080000000001020304010203045E
:102DD00006070809020406080000000000000000C1
:102DE00000000000000000000100000000000000E2
:102DF00000000000000000000000000000000000D3
:102E000000000000000000000000000000000000C2
:102E100000000000000000000000E803E803800854
:102E200066660000000002000000000000000000D4
:102E30000000000000000000000000000000000092
:102E40000000000000000000000000000000000082
:102E500011000000ED1D0008040000008B1C00089C
:102E600003000000FF1B000810000000571F0008AF
:102E700006000000851E000817000000171D00084E
:102E800001000000A51A000805000000151E00083A
:102E90000F000000C71E000802000000531B0008BE
:102EA0000000000000000000000000000000000022
:102EB0000000000000000000000000000000000012
:102EC0000000000000000000000000000000000002
:102ED00000000000000000000000000000000000F2
:0C2EE000000000000000000000000000E6
:0400000508000131BD
:00000001FF
